{
  "contractName": "ClaimHolder",
  "abi": [
    {
      "constant": true,
      "inputs": [
        {
          "name": "_key",
          "type": "bytes32"
        }
      ],
      "name": "getKeyPurpose",
      "outputs": [
        {
          "name": "purpose",
          "type": "uint256"
        }
      ],
      "payable": false,
      "stateMutability": "view",
      "type": "function"
    },
    {
      "constant": true,
      "inputs": [
        {
          "name": "_key",
          "type": "bytes32"
        }
      ],
      "name": "getKey",
      "outputs": [
        {
          "name": "purpose",
          "type": "uint256"
        },
        {
          "name": "keyType",
          "type": "uint256"
        },
        {
          "name": "key",
          "type": "bytes32"
        }
      ],
      "payable": false,
      "stateMutability": "view",
      "type": "function"
    },
    {
      "constant": false,
      "inputs": [
        {
          "name": "_key",
          "type": "bytes32"
        },
        {
          "name": "_purpose",
          "type": "uint256"
        },
        {
          "name": "_type",
          "type": "uint256"
        }
      ],
      "name": "addKey",
      "outputs": [
        {
          "name": "success",
          "type": "bool"
        }
      ],
      "payable": false,
      "stateMutability": "nonpayable",
      "type": "function"
    },
    {
      "constant": false,
      "inputs": [
        {
          "name": "_id",
          "type": "uint256"
        },
        {
          "name": "_approve",
          "type": "bool"
        }
      ],
      "name": "approve",
      "outputs": [
        {
          "name": "success",
          "type": "bool"
        }
      ],
      "payable": false,
      "stateMutability": "nonpayable",
      "type": "function"
    },
    {
      "constant": false,
      "inputs": [
        {
          "name": "_key",
          "type": "bytes32"
        }
      ],
      "name": "removeKey",
      "outputs": [
        {
          "name": "success",
          "type": "bool"
        }
      ],
      "payable": false,
      "stateMutability": "nonpayable",
      "type": "function"
    },
    {
      "constant": true,
      "inputs": [
        {
          "name": "_purpose",
          "type": "uint256"
        }
      ],
      "name": "getKeysByPurpose",
      "outputs": [
        {
          "name": "_keys",
          "type": "bytes32[]"
        }
      ],
      "payable": false,
      "stateMutability": "view",
      "type": "function"
    },
    {
      "constant": false,
      "inputs": [
        {
          "name": "_to",
          "type": "address"
        },
        {
          "name": "_value",
          "type": "uint256"
        },
        {
          "name": "_data",
          "type": "bytes"
        }
      ],
      "name": "execute",
      "outputs": [
        {
          "name": "executionId",
          "type": "uint256"
        }
      ],
      "payable": true,
      "stateMutability": "payable",
      "type": "function"
    },
    {
      "constant": true,
      "inputs": [
        {
          "name": "_key",
          "type": "bytes32"
        },
        {
          "name": "_purpose",
          "type": "uint256"
        }
      ],
      "name": "keyHasPurpose",
      "outputs": [
        {
          "name": "result",
          "type": "bool"
        }
      ],
      "payable": false,
      "stateMutability": "view",
      "type": "function"
    },
    {
      "anonymous": false,
      "inputs": [
        {
          "indexed": true,
          "name": "claimRequestId",
          "type": "uint256"
        },
        {
          "indexed": true,
          "name": "claimType",
          "type": "uint256"
        },
        {
          "indexed": false,
          "name": "scheme",
          "type": "uint256"
        },
        {
          "indexed": true,
          "name": "issuer",
          "type": "address"
        },
        {
          "indexed": false,
          "name": "signature",
          "type": "bytes"
        },
        {
          "indexed": false,
          "name": "data",
          "type": "bytes"
        },
        {
          "indexed": false,
          "name": "uri",
          "type": "string"
        }
      ],
      "name": "ClaimRequested",
      "type": "event"
    },
    {
      "anonymous": false,
      "inputs": [
        {
          "indexed": true,
          "name": "claimId",
          "type": "bytes32"
        },
        {
          "indexed": true,
          "name": "claimType",
          "type": "uint256"
        },
        {
          "indexed": true,
          "name": "issuer",
          "type": "address"
        },
        {
          "indexed": false,
          "name": "signatureType",
          "type": "uint256"
        },
        {
          "indexed": false,
          "name": "signature",
          "type": "bytes32"
        },
        {
          "indexed": false,
          "name": "claim",
          "type": "bytes"
        },
        {
          "indexed": false,
          "name": "uri",
          "type": "string"
        }
      ],
      "name": "ClaimAdded",
      "type": "event"
    },
    {
      "anonymous": false,
      "inputs": [
        {
          "indexed": true,
          "name": "claimId",
          "type": "bytes32"
        },
        {
          "indexed": true,
          "name": "claimType",
          "type": "uint256"
        },
        {
          "indexed": false,
          "name": "scheme",
          "type": "uint256"
        },
        {
          "indexed": true,
          "name": "issuer",
          "type": "address"
        },
        {
          "indexed": false,
          "name": "signature",
          "type": "bytes"
        },
        {
          "indexed": false,
          "name": "data",
          "type": "bytes"
        },
        {
          "indexed": false,
          "name": "uri",
          "type": "string"
        }
      ],
      "name": "ClaimAdded",
      "type": "event"
    },
    {
      "anonymous": false,
      "inputs": [
        {
          "indexed": true,
          "name": "claimId",
          "type": "bytes32"
        },
        {
          "indexed": true,
          "name": "claimType",
          "type": "uint256"
        },
        {
          "indexed": false,
          "name": "scheme",
          "type": "uint256"
        },
        {
          "indexed": true,
          "name": "issuer",
          "type": "address"
        },
        {
          "indexed": false,
          "name": "signature",
          "type": "bytes"
        },
        {
          "indexed": false,
          "name": "data",
          "type": "bytes"
        },
        {
          "indexed": false,
          "name": "uri",
          "type": "string"
        }
      ],
      "name": "ClaimRemoved",
      "type": "event"
    },
    {
      "anonymous": false,
      "inputs": [
        {
          "indexed": true,
          "name": "claimId",
          "type": "bytes32"
        },
        {
          "indexed": true,
          "name": "claimType",
          "type": "uint256"
        },
        {
          "indexed": false,
          "name": "scheme",
          "type": "uint256"
        },
        {
          "indexed": true,
          "name": "issuer",
          "type": "address"
        },
        {
          "indexed": false,
          "name": "signature",
          "type": "bytes"
        },
        {
          "indexed": false,
          "name": "data",
          "type": "bytes"
        },
        {
          "indexed": false,
          "name": "uri",
          "type": "string"
        }
      ],
      "name": "ClaimChanged",
      "type": "event"
    },
    {
      "anonymous": false,
      "inputs": [
        {
          "indexed": true,
          "name": "executionId",
          "type": "uint256"
        },
        {
          "indexed": true,
          "name": "to",
          "type": "address"
        },
        {
          "indexed": true,
          "name": "value",
          "type": "uint256"
        },
        {
          "indexed": false,
          "name": "data",
          "type": "bytes"
        }
      ],
      "name": "ExecutionFailed",
      "type": "event"
    },
    {
      "anonymous": false,
      "inputs": [
        {
          "indexed": true,
          "name": "key",
          "type": "bytes32"
        },
        {
          "indexed": true,
          "name": "purpose",
          "type": "uint256"
        },
        {
          "indexed": true,
          "name": "keyType",
          "type": "uint256"
        }
      ],
      "name": "KeyAdded",
      "type": "event"
    },
    {
      "anonymous": false,
      "inputs": [
        {
          "indexed": true,
          "name": "key",
          "type": "bytes32"
        },
        {
          "indexed": true,
          "name": "purpose",
          "type": "uint256"
        },
        {
          "indexed": true,
          "name": "keyType",
          "type": "uint256"
        }
      ],
      "name": "KeyRemoved",
      "type": "event"
    },
    {
      "anonymous": false,
      "inputs": [
        {
          "indexed": true,
          "name": "executionId",
          "type": "uint256"
        },
        {
          "indexed": true,
          "name": "to",
          "type": "address"
        },
        {
          "indexed": true,
          "name": "value",
          "type": "uint256"
        },
        {
          "indexed": false,
          "name": "data",
          "type": "bytes"
        }
      ],
      "name": "ExecutionRequested",
      "type": "event"
    },
    {
      "anonymous": false,
      "inputs": [
        {
          "indexed": true,
          "name": "executionId",
          "type": "uint256"
        },
        {
          "indexed": true,
          "name": "to",
          "type": "address"
        },
        {
          "indexed": true,
          "name": "value",
          "type": "uint256"
        },
        {
          "indexed": false,
          "name": "data",
          "type": "bytes"
        }
      ],
      "name": "Executed",
      "type": "event"
    },
    {
      "anonymous": false,
      "inputs": [
        {
          "indexed": true,
          "name": "executionId",
          "type": "uint256"
        },
        {
          "indexed": false,
          "name": "approved",
          "type": "bool"
        }
      ],
      "name": "Approved",
      "type": "event"
    },
    {
      "constant": false,
      "inputs": [
        {
          "name": "_claimType",
          "type": "uint256"
        },
        {
          "name": "_scheme",
          "type": "uint256"
        },
        {
          "name": "_issuer",
          "type": "address"
        },
        {
          "name": "_signature",
          "type": "bytes"
        },
        {
          "name": "_data",
          "type": "bytes"
        },
        {
          "name": "_uri",
          "type": "string"
        }
      ],
      "name": "addClaim",
      "outputs": [
        {
          "name": "claimRequestId",
          "type": "bytes32"
        }
      ],
      "payable": false,
      "stateMutability": "nonpayable",
      "type": "function"
    },
    {
      "constant": false,
      "inputs": [
        {
          "name": "_claimId",
          "type": "bytes32"
        }
      ],
      "name": "removeClaim",
      "outputs": [
        {
          "name": "success",
          "type": "bool"
        }
      ],
      "payable": false,
      "stateMutability": "nonpayable",
      "type": "function"
    },
    {
      "constant": true,
      "inputs": [
        {
          "name": "_claimId",
          "type": "bytes32"
        }
      ],
      "name": "getClaim",
      "outputs": [
        {
          "name": "claimType",
          "type": "uint256"
        },
        {
          "name": "scheme",
          "type": "uint256"
        },
        {
          "name": "issuer",
          "type": "address"
        },
        {
          "name": "signature",
          "type": "bytes"
        },
        {
          "name": "data",
          "type": "bytes"
        },
        {
          "name": "uri",
          "type": "string"
        }
      ],
      "payable": false,
      "stateMutability": "view",
      "type": "function"
    },
    {
      "constant": true,
      "inputs": [
        {
          "name": "_claimType",
          "type": "uint256"
        }
      ],
      "name": "getClaimIdsByType",
      "outputs": [
        {
          "name": "claimIds",
          "type": "bytes32[]"
        }
      ],
      "payable": false,
      "stateMutability": "view",
      "type": "function"
    }
  ],
  "bytecode": "0x6080604052600032604051808273ffffffffffffffffffffffffffffffffffffffff1673ffffffffffffffffffffffffffffffffffffffff166c0100000000000000000000000002815260140191505060405180910390209050806001600083600019166000191681526020019081526020016000206002018160001916905550600180600083600019166000191681526020019081526020016000206000018190555060018060008360001916600019168152602001908152602001600020600101819055506002600060018152602001908152602001600020819080600181540180825580915050906001820390600052602060002001600090919290919091509060001916905550600180600083600019166000191681526020019081526020016000206000015482600019167f480000bb1edad8ca1470381cc334b1917fbd51c6531f3a623ea8e0ec7e38a6e960405160405180910390a4506123f58061016b6000396000f3006080604052600436106100ba576000357c0100000000000000000000000000000000000000000000000000000000900463ffffffff168063032c1a8a146100bf57806312aaac70146101045780631d3812401461015f578063262b54f5146101bc5780634eee424a1461023e578063747442d314610287578063862642f5146102d85780639010f72614610321578063b1a34e0d146103a3578063b61d27f6146104e8578063c9100bcb14610582578063d202158d14610745575b600080fd5b3480156100cb57600080fd5b506100ee6004803603810190808035600019169060200190929190505050610798565b6040518082815260200191505060405180910390f35b34801561011057600080fd5b5061013360048036038101908080356000191690602001909291905050506107c0565b604051808481526020018381526020018260001916600019168152602001935050505060405180910390f35b34801561016b57600080fd5b506101a26004803603810190808035600019169060200190929190803590602001909291908035906020019092919050505061082f565b604051808215151515815260200191505060405180910390f35b3480156101c857600080fd5b506101e760048036038101908080359060200190929190505050610ae8565b6040518080602001828103825283818151815260200191508051906020019060200280838360005b8381101561022a57808201518184015260208101905061020f565b505050509050019250505060405180910390f35b34801561024a57600080fd5b5061026d6004803603810190808035600019169060200190929190505050610b57565b604051808215151515815260200191505060405180910390f35b34801561029357600080fd5b506102be60048036038101908080359060200190929190803515159060200190929190505050610fd5565b604051808215151515815260200191505060405180910390f35b3480156102e457600080fd5b506103076004803603810190808035600019169060200190929190505050611500565b604051808215151515815260200191505060405180910390f35b34801561032d57600080fd5b5061034c6004803603810190808035906020019092919050505061166b565b6040518080602001828103825283818151815260200191508051906020019060200280838360005b8381101561038f578082015181840152602081019050610374565b505050509050019250505060405180910390f35b3480156103af57600080fd5b506104ca6004803603810190808035906020019092919080359060200190929190803573ffffffffffffffffffffffffffffffffffffffff169060200190929190803590602001908201803590602001908080601f0160208091040260200160405190810160405280939291908181526020018383808284378201915050505050509192919290803590602001908201803590602001908080601f0160208091040260200160405190810160405280939291908181526020018383808284378201915050505050509192919290803590602001908201803590602001908080601f01602080910402602001604051908101604052809392919081815260200183838082843782019150505050505091929192905050506116da565b60405180826000191660001916815260200191505060405180910390f35b61056c600480360381019080803573ffffffffffffffffffffffffffffffffffffffff16906020019092919080359060200190929190803590602001908201803590602001908080601f0160208091040260200160405190810160405280939291908181526020018383808284378201915050505050509192919290505050611bff565b6040518082815260200191505060405180910390f35b34801561058e57600080fd5b506105b16004803603810190808035600019169060200190929190505050611ee1565b604051808781526020018681526020018573ffffffffffffffffffffffffffffffffffffffff1673ffffffffffffffffffffffffffffffffffffffff168152602001806020018060200180602001848103845287818151815260200191508051906020019080838360005b8381101561063757808201518184015260208101905061061c565b50505050905090810190601f1680156106645780820380516001836020036101000a031916815260200191505b50848103835286818151815260200191508051906020019080838360005b8381101561069d578082015181840152602081019050610682565b50505050905090810190601f1680156106ca5780820380516001836020036101000a031916815260200191505b50848103825285818151815260200191508051906020019080838360005b838110156107035780820151818401526020810190506106e8565b50505050905090810190601f1680156107305780820380516001836020036101000a031916815260200191505b50995050505050505050505060405180910390f35b34801561075157600080fd5b5061077e6004803603810190808035600019169060200190929190803590602001909291905050506121ab565b604051808215151515815260200191505060405180910390f35b6000600160008360001916600019168152602001908152602001600020600001549050919050565b60008060006001600085600019166000191681526020019081526020016000206000015460016000866000191660001916815260200190815260200160002060010154600160008760001916600019168152602001908152602001600020600201549250925092509193909250565b600083600019166001600086600019166000191681526020019081526020016000206002015460001916141515156108cf576040517f08c379a00000000000000000000000000000000000000000000000000000000081526004018080602001828103825260128152602001807f4b657920616c726561647920657869737473000000000000000000000000000081525060200191505060405180910390fd5b3073ffffffffffffffffffffffffffffffffffffffff163373ffffffffffffffffffffffffffffffffffffffff161415156109fa5761095f33604051808273ffffffffffffffffffffffffffffffffffffffff1673ffffffffffffffffffffffffffffffffffffffff166c01000000000000000000000000028152601401915050604051809103902060016121ab565b15156109f9576040517f08c379a00000000000000000000000000000000000000000000000000000000081526004018080602001828103825260238152602001807f53656e64657220646f6573206e6f742068617665206d616e6167656d656e742081526020017f6b6579000000000000000000000000000000000000000000000000000000000081525060400191505060405180910390fd5b5b8360016000866000191660001916815260200190815260200160002060020181600019169055508260016000866000191660001916815260200190815260200160002060000181905550816001600086600019166000191681526020019081526020016000206001018190555060026000848152602001908152602001600020849080600181540180825580915050906001820390600052602060002001600090919290919091509060001916905550818385600019167f480000bb1edad8ca1470381cc334b1917fbd51c6531f3a623ea8e0ec7e38a6e960405160405180910390a4600190509392505050565b606060056000838152602001908152602001600020805480602002602001604051908101604052809291908181526020018280548015610b4b57602002820191906000526020600020905b81546000191681526020019060010190808311610b33575b50505050509050919050565b60003073ffffffffffffffffffffffffffffffffffffffff163373ffffffffffffffffffffffffffffffffffffffff16141515610c8457610be933604051808273ffffffffffffffffffffffffffffffffffffffff1673ffffffffffffffffffffffffffffffffffffffff166c01000000000000000000000000028152601401915050604051809103902060016121ab565b1515610c83576040517f08c379a00000000000000000000000000000000000000000000000000000000081526004018080602001828103825260238152602001807f53656e64657220646f6573206e6f742068617665206d616e6167656d656e742081526020017f6b6579000000000000000000000000000000000000000000000000000000000081525060400191505060405180910390fd5b5b60046000836000191660001916815260200190815260200160002060020160009054906101000a900473ffffffffffffffffffffffffffffffffffffffff1673ffffffffffffffffffffffffffffffffffffffff166004600084600019166000191681526020019081526020016000206000015483600019167f3cf57863a89432c61c4a27073c6ee39e8a764bff5a05aebfbcdcdc80b2e6130a60046000876000191660001916815260200190815260200160002060010154600460008860001916600019168152602001908152602001600020600301600460008960001916600019168152602001908152602001600020600401600460008a6000191660001916815260200190815260200160002060050160405180858152602001806020018060200180602001848103845287818154600181600116156101000203166002900481526020019150805460018160011615610100020316600290048015610e2e5780601f10610e0357610100808354040283529160200191610e2e565b820191906000526020600020905b815481529060010190602001808311610e1157829003601f168201915b5050848103835286818154600181600116156101000203166002900481526020019150805460018160011615610100020316600290048015610eb15780601f10610e8657610100808354040283529160200191610eb1565b820191906000526020600020905b815481529060010190602001808311610e9457829003601f168201915b5050848103825285818154600181600116156101000203166002900481526020019150805460018160011615610100020316600290048015610f345780601f10610f0957610100808354040283529160200191610f34565b820191906000526020600020905b815481529060010190602001808311610f1757829003601f168201915b505097505050505050505060405180910390a460046000836000191660001916815260200190815260200160002060008082016000905560018201600090556002820160006101000a81549073ffffffffffffffffffffffffffffffffffffffff0219169055600382016000610faa9190612214565b600482016000610fba9190612214565b600582016000610fca919061225c565b505060019050919050565b600061103233604051808273ffffffffffffffffffffffffffffffffffffffff1673ffffffffffffffffffffffffffffffffffffffff166c01000000000000000000000000028152601401915050604051809103902060016121ab565b15156110a6576040517f08c379a000000000000000000000000000000000000000000000000000000000815260040180806020018281038252601f8152602001807f53656e64657220646f6573206e6f74206861766520616374696f6e206b65790081525060200191505060405180910390fd5b827fb3932da477fe5d6c8ff2eafef050c0f3a1af18fc07121001482600f36f3715d883604051808215151515815260200191505060405180910390a26001151582151514156114c65760016003600085815260200190815260200160002060030160006101000a81548160ff0219169083151502179055506003600084815260200190815260200160002060000160009054906101000a900473ffffffffffffffffffffffffffffffffffffffff1673ffffffffffffffffffffffffffffffffffffffff16600360008581526020019081526020016000206001015460036000868152602001908152602001600020600201600060405180838054600181600116156101000203166002900480156111ff5780601f106111d4576101008083540402835291602001916111ff565b820191906000526020600020905b8154815290600101906020018083116111e257829003601f168201915b50508260ff1681526020019250505060006040518083038185875af1925050509050801561138e5760016003600085815260200190815260200160002060030160016101000a81548160ff02191690831515021790555060036000848152602001908152602001600020600101546003600085815260200190815260200160002060000160009054906101000a900473ffffffffffffffffffffffffffffffffffffffff1673ffffffffffffffffffffffffffffffffffffffff16847f1f920dbda597d7bf95035464170fa58d0a4b57f13a1c315ace6793b9f63688b860036000888152602001908152602001600020600201604051808060200182810382528381815460018160011615610100020316600290048152602001915080546001816001161561010002031660029004801561137b5780601f106113505761010080835404028352916020019161137b565b820191906000526020600020905b81548152906001019060200180831161135e57829003601f168201915b50509250505060405180910390a46114fa565b60036000848152602001908152602001600020600101546003600085815260200190815260200160002060000160009054906101000a900473ffffffffffffffffffffffffffffffffffffffff1673ffffffffffffffffffffffffffffffffffffffff16847fe10c49d9f7c71da23262367013434763cfdb2332267641728d25cd712c5c6a686003600088815260200190815260200160002060020160405180806020018281038252838181546001816001161561010002031660029004815260200191508054600181600116156101000203166002900480156114b35780601f10611488576101008083540402835291602001916114b3565b820191906000526020600020905b81548152906001019060200180831161149657829003601f168201915b50509250505060405180910390a46114fa565b60006003600085815260200190815260200160002060030160006101000a81548160ff021916908315150217905550600190505b92915050565b60008160001916600160008460001916600019168152602001908152602001600020600201546000191614151561159f576040517f08c379a000000000000000000000000000000000000000000000000000000000815260040180806020018281038252600b8152602001807f4e6f2073756368206b657900000000000000000000000000000000000000000081525060200191505060405180910390fd5b600160008360001916600019168152602001908152602001600020600101546001600084600019166000191681526020019081526020016000206000015460016000856000191660001916815260200190815260200160002060020154600019167f585a4aef50f8267a92b32412b331b20f7f8b96f2245b253b9cc50dcc621d339760405160405180910390a460016000836000191660001916815260200190815260200160002060008082016000905560018201600090556002820160009055505060019050919050565b6060600260008381526020019081526020016000208054806020026020016040519081016040528092919081815260200182805480156116ce57602002820191906000526020600020905b815460001916815260200190600101908083116116b6575b50505050509050919050565b6000808588604051808373ffffffffffffffffffffffffffffffffffffffff1673ffffffffffffffffffffffffffffffffffffffff166c0100000000000000000000000002815260140182815260200192505050604051809103902090503073ffffffffffffffffffffffffffffffffffffffff163373ffffffffffffffffffffffffffffffffffffffff16141515611863576117c833604051808273ffffffffffffffffffffffffffffffffffffffff1673ffffffffffffffffffffffffffffffffffffffff166c01000000000000000000000000028152601401915050604051809103902060016121ab565b1515611862576040517f08c379a00000000000000000000000000000000000000000000000000000000081526004018080602001828103825260258152602001807f53656e64657220646f6573206e6f74206861766520636c61696d207369676e6581526020017f72206b657900000000000000000000000000000000000000000000000000000081525060400191505060405180910390fd5b5b8573ffffffffffffffffffffffffffffffffffffffff1660046000836000191660001916815260200190815260200160002060020160009054906101000a900473ffffffffffffffffffffffffffffffffffffffff1673ffffffffffffffffffffffffffffffffffffffff1614151561191a57600560008981526020019081526020016000208190806001815401808255809150509060018203906000526020600020016000909192909190915090600019169055505b876004600083600019166000191681526020019081526020016000206000018190555086600460008360001916600019168152602001908152602001600020600101819055508560046000836000191660001916815260200190815260200160002060020160006101000a81548173ffffffffffffffffffffffffffffffffffffffff021916908373ffffffffffffffffffffffffffffffffffffffff1602179055508460046000836000191660001916815260200190815260200160002060030190805190602001906119ef9291906122a4565b50836004600083600019166000191681526020019081526020016000206004019080519060200190611a229291906122a4565b50826004600083600019166000191681526020019081526020016000206005019080519060200190611a55929190612324565b508573ffffffffffffffffffffffffffffffffffffffff168882600019167f46149b18aa084502c3f12bc75e19eda8bda8d102b82cce8474677a6d0d5f43c58a89898960405180858152602001806020018060200180602001848103845287818151815260200191508051906020019080838360005b83811015611ae6578082015181840152602081019050611acb565b50505050905090810190601f168015611b135780820380516001836020036101000a031916815260200191505b50848103835286818151815260200191508051906020019080838360005b83811015611b4c578082015181840152602081019050611b31565b50505050905090810190601f168015611b795780820380516001836020036101000a031916815260200191505b50848103825285818151815260200191508051906020019080838360005b83811015611bb2578082015181840152602081019050611b97565b50505050905090810190601f168015611bdf5780820380516001836020036101000a031916815260200191505b5097505050505050505060405180910390a4809150509695505050505050565b6000600360008054815260200190815260200160002060030160019054906101000a900460ff16151515611c9b576040517f08c379a00000000000000000000000000000000000000000000000000000000081526004018080602001828103825260108152602001807f416c72656164792065786563757465640000000000000000000000000000000081525060200191505060405180910390fd5b83600360008054815260200190815260200160002060000160006101000a81548173ffffffffffffffffffffffffffffffffffffffff021916908373ffffffffffffffffffffffffffffffffffffffff160217905550826003600080548152602001908152602001600020600101819055508160036000805481526020019081526020016000206002019080519060200190611d389291906122a4565b50828473ffffffffffffffffffffffffffffffffffffffff166000547f8afcfabcb00e47a53a8fc3e9f23ff47ee1926194bb1350dd007c50b412a6cee8856040518080602001828103825283818151815260200191508051906020019080838360005b83811015611db6578082015181840152602081019050611d9b565b50505050905090810190601f168015611de35780820380516001836020036101000a031916815260200191505b509250505060405180910390a4611e4b33604051808273ffffffffffffffffffffffffffffffffffffffff1673ffffffffffffffffffffffffffffffffffffffff166c01000000000000000000000000028152601401915050604051809103902060016121ab565b80611ead5750611eac33604051808273ffffffffffffffffffffffffffffffffffffffff1673ffffffffffffffffffffffffffffffffffffffff166c01000000000000000000000000028152601401915050604051809103902060026121ab565b5b15611ec157611ebf6000546001610fd5565b505b600080815480929190600101919050555060016000540390509392505050565b600080600060608060606004600088600019166000191681526020019081526020016000206000015460046000896000191660001916815260200190815260200160002060010154600460008a6000191660001916815260200190815260200160002060020160009054906101000a900473ffffffffffffffffffffffffffffffffffffffff16600460008b60001916600019168152602001908152602001600020600301600460008c60001916600019168152602001908152602001600020600401600460008d60001916600019168152602001908152602001600020600501828054600181600116156101000203166002900480601f0160208091040260200160405190810160405280929190818152602001828054600181600116156101000203166002900480156120575780601f1061202c57610100808354040283529160200191612057565b820191906000526020600020905b81548152906001019060200180831161203a57829003601f168201915b50505050509250818054600181600116156101000203166002900480601f0160208091040260200160405190810160405280929190818152602001828054600181600116156101000203166002900480156120f35780601f106120c8576101008083540402835291602001916120f3565b820191906000526020600020905b8154815290600101906020018083116120d657829003601f168201915b50505050509150808054600181600116156101000203166002900480601f01602080910402602001604051908101604052809291908181526020018280546001816001161561010002031660029004801561218f5780601f106121645761010080835404028352916020019161218f565b820191906000526020600020905b81548152906001019060200180831161217257829003601f168201915b5050505050905095509550955095509550955091939550919395565b6000806000600102600160008660001916600019168152602001908152602001600020600201546000191614156121e5576000915061220d565b8260016000866000191660001916815260200190815260200160002060000154111590508091505b5092915050565b50805460018160011615610100020316600290046000825580601f1061223a5750612259565b601f01602090049060005260206000209081019061225891906123a4565b5b50565b50805460018160011615610100020316600290046000825580601f1061228257506122a1565b601f0160209004906000526020600020908101906122a091906123a4565b5b50565b828054600181600116156101000203166002900490600052602060002090601f016020900481019282601f106122e557805160ff1916838001178555612313565b82800160010185558215612313579182015b828111156123125782518255916020019190600101906122f7565b5b50905061232091906123a4565b5090565b828054600181600116156101000203166002900490600052602060002090601f016020900481019282601f1061236557805160ff1916838001178555612393565b82800160010185558215612393579182015b82811115612392578251825591602001919060010190612377565b5b5090506123a091906123a4565b5090565b6123c691905b808211156123c25760008160009055506001016123aa565b5090565b905600a165627a7a723058204d20628cb13c4c1639e0bd9abe2dfe3cd52b728eac095ec04eb49302534bccc70029",
  "source": "pragma solidity ^0.4.24;\n\nimport \"contracts/ERC735.sol\";\nimport \"contracts/KeyHolder.sol\";\n\ncontract ClaimHolder is KeyHolder, ERC735 \n{\n    mapping (bytes32 => Claim) claims;\n    mapping (uint256 => bytes32[]) claimsByType;\n\n    function addClaim(\n        uint256 _claimType, uint256 _scheme,\n        address _issuer, bytes _signature,\n        bytes _data, string _uri) public returns (bytes32 claimRequestId) {\n        bytes32 claimId = keccak256(_issuer, _claimType);\n\n        if (msg.sender != address(this)) {\n            require(keyHasPurpose(keccak256(msg.sender), 1), \"Sender does not have claim signer key\");\n        }\n        if (claims[claimId].issuer != _issuer) {\n            claimsByType[_claimType].push(claimId);\n        }\n        claims[claimId].claimType = _claimType;\n        claims[claimId].scheme = _scheme;\n        claims[claimId].issuer = _issuer;\n        claims[claimId].signature = _signature;\n        claims[claimId].data = _data;\n        claims[claimId].uri = _uri;\n\n        emit ClaimAdded(\n            claimId,\n            _claimType,\n            _scheme,\n            _issuer,\n            _signature,\n            _data,\n            _uri\n        );\n\n        return claimId;\n    }\n\n    function removeClaim(bytes32 _claimId) public returns (bool success) {\n        if (msg.sender != address(this)) {\n            require(keyHasPurpose(keccak256(msg.sender), 1), \"Sender does not have management key\");\n        }\n        emit ClaimRemoved(\n            _claimId,\n            claims[_claimId].claimType,\n            claims[_claimId].scheme,\n            claims[_claimId].issuer,\n            claims[_claimId].signature,\n            claims[_claimId].data,\n            claims[_claimId].uri\n        );\n        delete claims[_claimId];\n        return true;\n    }\n\n    function getClaim(bytes32 _claimId)\n        public view returns(\n            uint256 claimType, uint256 scheme,\n            address issuer, bytes signature,\n            bytes data, string uri) {\n        return (\n            claims[_claimId].claimType,\n            claims[_claimId].scheme,\n            claims[_claimId].issuer,\n            claims[_claimId].signature,\n            claims[_claimId].data,\n            claims[_claimId].uri\n        );\n    }\n    \n    function getClaimIdsByType(uint256 _claimType)\n        public view returns(bytes32[] claimIds) {\n        return claimsByType[_claimType];\n    }\n}\n",
  "sourcePath": "/Users/tobacco/Downloads/Archive/contracts/ClaimHolder.sol",
  "compiler": {
    "name": "solc",
    "version": "0.4.24+commit.e67f0147.Emscripten.clang"
  },
  "schemaVersion": "2.0.1",
  "updatedAt": "2018-07-17T14:28:18.602Z"
}