{
  "contractName": "ClaimVerifier",
  "abi": [
    {
      "constant": true,
      "inputs": [],
      "name": "trustedClaimHolder",
      "outputs": [
        {
          "name": "",
          "type": "address"
        }
      ],
      "payable": false,
      "stateMutability": "view",
      "type": "function"
    },
    {
      "inputs": [
        {
          "name": "_trustedClaimHolder",
          "type": "address"
        }
      ],
      "payable": false,
      "stateMutability": "nonpayable",
      "type": "constructor"
    },
    {
      "anonymous": false,
      "inputs": [
        {
          "indexed": false,
          "name": "_identity",
          "type": "address"
        },
        {
          "indexed": false,
          "name": "claimType",
          "type": "uint256"
        }
      ],
      "name": "ClaimValid",
      "type": "event"
    },
    {
      "anonymous": false,
      "inputs": [
        {
          "indexed": false,
          "name": "_identity",
          "type": "address"
        },
        {
          "indexed": false,
          "name": "claimType",
          "type": "uint256"
        }
      ],
      "name": "ClaimInvalid",
      "type": "event"
    },
    {
      "constant": false,
      "inputs": [
        {
          "name": "_identity",
          "type": "address"
        },
        {
          "name": "claimType",
          "type": "uint256"
        }
      ],
      "name": "checkClaim",
      "outputs": [
        {
          "name": "claimValid",
          "type": "bool"
        }
      ],
      "payable": false,
      "stateMutability": "nonpayable",
      "type": "function"
    },
    {
      "constant": true,
      "inputs": [
        {
          "name": "_identity",
          "type": "address"
        },
        {
          "name": "claimType",
          "type": "uint256"
        }
      ],
      "name": "claimIsValid",
      "outputs": [
        {
          "name": "claimValid",
          "type": "bool"
        }
      ],
      "payable": false,
      "stateMutability": "view",
      "type": "function"
    }
  ],
  "bytecode": "0x608060405234801561001057600080fd5b5060405160208061095b83398101806040528101908080519060200190929190505050806000806101000a81548173ffffffffffffffffffffffffffffffffffffffff021916908373ffffffffffffffffffffffffffffffffffffffff160217905550506108d8806100836000396000f300608060405260043610610057576000357c0100000000000000000000000000000000000000000000000000000000900463ffffffff1680630382ad261461005c57806336938354146100c15780639fecd55414610118575b600080fd5b34801561006857600080fd5b506100a7600480360381019080803573ffffffffffffffffffffffffffffffffffffffff1690602001909291908035906020019092919050505061017d565b604051808215151515815260200191505060405180910390f35b3480156100cd57600080fd5b506100d6610278565b604051808273ffffffffffffffffffffffffffffffffffffffff1673ffffffffffffffffffffffffffffffffffffffff16815260200191505060405180910390f35b34801561012457600080fd5b50610163600480360381019080803573ffffffffffffffffffffffffffffffffffffffff1690602001909291908035906020019092919050505061029d565b604051808215151515815260200191505060405180910390f35b6000610189838361029d565b15610202577f5637aa6b77cde2de563765b75a65099af73d3bf22cb9d089a64a01777823208e8383604051808373ffffffffffffffffffffffffffffffffffffffff1673ffffffffffffffffffffffffffffffffffffffff1681526020018281526020019250505060405180910390a160019050610272565b7fc1e461cfcaa9ff5efbb053582a325fbfebec1d94ac7e9d9958ee7f74c2b6b5588383604051808373ffffffffffffffffffffffffffffffffffffffff1673ffffffffffffffffffffffffffffffffffffffff1681526020018281526020019250505060405180910390a1600090505b92915050565b6000809054906101000a900473ffffffffffffffffffffffffffffffffffffffff1681565b60008060008060608060008060008060008060009054906101000a900473ffffffffffffffffffffffffffffffffffffffff168c604051808373ffffffffffffffffffffffffffffffffffffffff1673ffffffffffffffffffffffffffffffffffffffff166c0100000000000000000000000002815260140182815260200192505050604051809103902094508c73ffffffffffffffffffffffffffffffffffffffff1663c9100bcb866040518263ffffffff167c0100000000000000000000000000000000000000000000000000000000028152600401808260001916600019168152602001915050600060405180830381600087803b1580156103a157600080fd5b505af11580156103b5573d6000803e3d6000fd5b505050506040513d6000823e3d601f19601f8201168201806040525060c08110156103df57600080fd5b81019080805190602001909291908051906020019092919080519060200190929190805164010000000081111561041557600080fd5b8281019050602081018481111561042b57600080fd5b815185600182028301116401000000008211171561044857600080fd5b5050929190602001805164010000000081111561046457600080fd5b8281019050602081018481111561047a57600080fd5b815185600182028301116401000000008211171561049757600080fd5b505092919060200180516401000000008111156104b357600080fd5b828101905060208101848111156104c957600080fd5b81518560018202830111640100000000821117156104e657600080fd5b505092919050505050809a50819b50829c50839d50849e5050505050508c8c87604051808473ffffffffffffffffffffffffffffffffffffffff1673ffffffffffffffffffffffffffffffffffffffff166c0100000000000000000000000002815260140183815260200182805190602001908083835b602083101515610582578051825260208201915060208101905060208303925061055d565b6001836020036101000a0380198251168184511680821785525050505050509050019350505050604051809103902093508360405160200180807f19457468657265756d205369676e6564204d6573736167653a0a333200000000815250601c0182600019166000191681526020019150506040516020818303038152906040526040518082805190602001908083835b6020831015156106385780518252602082019150602081019050602083039250610613565b6001836020036101000a0380198251168184511680821785525050505050509050019150506040518091039020925061067187846107b4565b915081604051808273ffffffffffffffffffffffffffffffffffffffff1673ffffffffffffffffffffffffffffffffffffffff166c01000000000000000000000000028152601401915050604051809103902090506000809054906101000a900473ffffffffffffffffffffffffffffffffffffffff1673ffffffffffffffffffffffffffffffffffffffff1663d202158d8260016040518363ffffffff167c010000000000000000000000000000000000000000000000000000000002815260040180836000191660001916815260200182815260200192505050602060405180830381600087803b15801561076757600080fd5b505af115801561077b573d6000803e3d6000fd5b505050506040513d602081101561079157600080fd5b81019080805190602001909291905050509a505050505050505050505092915050565b600080600080604186511415156107ce57600093506108a3565b6020860151925060408601519150606086015160001a9050601b8160ff1610156107f957601b810190505b601b8160ff16141580156108115750601c8160ff1614155b1561081f57600093506108a3565b600185828585604051600081526020016040526040518085600019166000191681526020018460ff1660ff1681526020018360001916600019168152602001826000191660001916815260200194505050505060206040516020810390808403906000865af1158015610896573d6000803e3d6000fd5b5050506020604051035193505b505050929150505600a165627a7a723058200bde528f48714f6810fcc86f8e3c12c9d81cb82e6b0cbd1555b47128091d8abc0029",
  "source": "pragma solidity ^0.4.24;\n\nimport \"contracts/ClaimHolder.sol\";\n\n/*\nUntil you have some on-chain method of verifying uniqueness of an individual,\nthere is nothing to prevent one person from creating 5 ERC725 identities and\nissuing 5 different claims with them.\n\nI'm curious if an address has ever seemed to be used for a different identity, \nwhich would imply that maybe the original identity (even with all the positive\nclaims) might not be reliable any longer and at least require further diligence,\nby checking the execution request array of the corresponding ERC725 contract.\n*/\n\ncontract ClaimVerifier \n{\n    event ClaimValid(ClaimHolder _identity, uint256 claimType);\n    event ClaimInvalid(ClaimHolder _identity, uint256 claimType);\n\n    ClaimHolder public trustedClaimHolder;\n\n    constructor(address _trustedClaimHolder) public {\n        trustedClaimHolder = ClaimHolder(_trustedClaimHolder);\n    }\n\n    function checkClaim(ClaimHolder _identity, uint256 claimType)\n    public returns (bool claimValid) {\n        if (claimIsValid(_identity, claimType)) {\n            emit ClaimValid(_identity, claimType);\n            return true;\n        } else {\n            emit ClaimInvalid(_identity, claimType);\n            return false;\n        }\n    }\n\n    function claimIsValid(ClaimHolder _identity, uint256 claimType)\n    public view returns (bool claimValid) {\n        uint256 foundClaimType;\n        uint256 scheme;\n        address issuer;\n        bytes memory sig;\n        bytes memory data;\n        bytes32 claimId = keccak256(trustedClaimHolder, claimType);\n        // Fetch claim from user\n        ( foundClaimType, scheme, issuer, sig, data, ) = _identity.getClaim(claimId);\n\n        bytes32 dataHash = keccak256(_identity, claimType, data);\n        bytes32 prefixedHash = keccak256(abi.encodePacked(\"\\x19Ethereum Signed Message:\\n32\", dataHash));\n        // Recover address of data signer\n        address recovered = getRecoveredAddress(sig, prefixedHash);\n        // Take hash of recovered address\n        bytes32 hashedAddr = keccak256(recovered);\n        // Does the trusted identifier have they key which signed the user's claim?\n        return trustedClaimHolder.keyHasPurpose(hashedAddr, 1);\n    }\n\n    /**\n      * @dev Recover signer address from a message by using their signature\n      * @param sig bytes signature, the signature is generated using web3.eth.sign()\n      * @param dataHash bytes32 message, the hash is the signed message. What is recovered is the signer address.\n    */\n    function getRecoveredAddress(bytes sig, bytes32 dataHash)\n    internal pure returns (address addr) {\n        bytes32 r;\n        bytes32 s;\n        uint8 v;\n\n        if (sig.length != 65) {\n            return (address(0));\n        }\n        // Divide the signature in r, s and v variables for ecrecover\n        // the only way to get them currently is to use assembly.\n        // solium-disable-next-line security/no-inline-assembly\n        assembly {\n          r := mload(add(sig, 32))\n          s := mload(add(sig, 64))\n          v := byte(0, mload(add(sig, 96)))\n        }\n        if (v < 27) {\n            v += 27;\n        }\n        // If the version is correct return the signer address\n        if (v != 27 && v != 28) {\n            return (address(0));\n        } else {\n            // solium-disable-next-line arg-overflow\n            return ecrecover(dataHash, v, r, s);\n        }\n    }\n}\n",
  "sourcePath": "contracts/ClaimVerifier.sol",
  "compiler": {
    "name": "solc",
    "version": "0.4.24+commit.e67f0147.Emscripten.clang"
  },
  "schemaVersion": "2.0.1",
  "updatedAt": "2018-07-17T10:48:57.530Z"
}