{
  "contractName": "EcommerceStore",
  "abi": [
    {
      "constant": true,
      "inputs": [],
      "name": "productIndex",
      "outputs": [
        {
          "name": "",
          "type": "uint256"
        }
      ],
      "payable": false,
      "stateMutability": "view",
      "type": "function"
    },
    {
      "constant": true,
      "inputs": [],
      "name": "arbiter",
      "outputs": [
        {
          "name": "",
          "type": "address"
        }
      ],
      "payable": false,
      "stateMutability": "view",
      "type": "function"
    },
    {
      "inputs": [
        {
          "name": "_arbiter",
          "type": "address"
        }
      ],
      "payable": false,
      "stateMutability": "nonpayable",
      "type": "constructor"
    },
    {
      "anonymous": false,
      "inputs": [
        {
          "indexed": false,
          "name": "_productId",
          "type": "uint256"
        },
        {
          "indexed": false,
          "name": "_buyer",
          "type": "address"
        }
      ],
      "name": "ReleaseFunds",
      "type": "event"
    },
    {
      "anonymous": false,
      "inputs": [
        {
          "indexed": false,
          "name": "_productId",
          "type": "uint256"
        },
        {
          "indexed": false,
          "name": "_name",
          "type": "string"
        },
        {
          "indexed": false,
          "name": "_category",
          "type": "string"
        },
        {
          "indexed": false,
          "name": "_imageLink",
          "type": "string"
        },
        {
          "indexed": false,
          "name": "_descLink",
          "type": "string"
        },
        {
          "indexed": false,
          "name": "_startTime",
          "type": "uint256"
        },
        {
          "indexed": false,
          "name": "_price",
          "type": "uint256"
        },
        {
          "indexed": false,
          "name": "_productCondition",
          "type": "uint256"
        }
      ],
      "name": "NewProduct",
      "type": "event"
    },
    {
      "constant": false,
      "inputs": [],
      "name": "bless",
      "outputs": [],
      "payable": false,
      "stateMutability": "nonpayable",
      "type": "function"
    },
    {
      "constant": false,
      "inputs": [
        {
          "name": "_name",
          "type": "string"
        },
        {
          "name": "_category",
          "type": "string"
        },
        {
          "name": "_imageLink",
          "type": "string"
        },
        {
          "name": "_descLink",
          "type": "string"
        },
        {
          "name": "_startTime",
          "type": "uint256"
        },
        {
          "name": "_price",
          "type": "uint256"
        },
        {
          "name": "_productCondition",
          "type": "uint256"
        }
      ],
      "name": "addProductToStore",
      "outputs": [],
      "payable": false,
      "stateMutability": "nonpayable",
      "type": "function"
    },
    {
      "constant": true,
      "inputs": [
        {
          "name": "_productId",
          "type": "uint256"
        }
      ],
      "name": "getProduct",
      "outputs": [
        {
          "name": "",
          "type": "uint256"
        },
        {
          "name": "",
          "type": "string"
        },
        {
          "name": "",
          "type": "string"
        },
        {
          "name": "",
          "type": "string"
        },
        {
          "name": "",
          "type": "string"
        },
        {
          "name": "",
          "type": "uint256"
        },
        {
          "name": "",
          "type": "uint256"
        },
        {
          "name": "",
          "type": "uint8"
        },
        {
          "name": "",
          "type": "address"
        }
      ],
      "payable": false,
      "stateMutability": "view",
      "type": "function"
    },
    {
      "constant": false,
      "inputs": [
        {
          "name": "_productId",
          "type": "uint256"
        }
      ],
      "name": "buy",
      "outputs": [],
      "payable": true,
      "stateMutability": "payable",
      "type": "function"
    },
    {
      "constant": true,
      "inputs": [
        {
          "name": "_productId",
          "type": "uint256"
        }
      ],
      "name": "escrowInfo",
      "outputs": [
        {
          "name": "",
          "type": "address"
        },
        {
          "name": "",
          "type": "address"
        },
        {
          "name": "",
          "type": "address"
        },
        {
          "name": "",
          "type": "bool"
        },
        {
          "name": "",
          "type": "uint256"
        },
        {
          "name": "",
          "type": "uint256"
        }
      ],
      "payable": false,
      "stateMutability": "view",
      "type": "function"
    },
    {
      "constant": false,
      "inputs": [
        {
          "name": "_productId",
          "type": "uint256"
        }
      ],
      "name": "releaseAmountToSeller",
      "outputs": [],
      "payable": false,
      "stateMutability": "nonpayable",
      "type": "function"
    },
    {
      "constant": false,
      "inputs": [
        {
          "name": "_productId",
          "type": "uint256"
        }
      ],
      "name": "refundAmountToBuyer",
      "outputs": [],
      "payable": false,
      "stateMutability": "nonpayable",
      "type": "function"
    }
  ],
  "bytecode": "0x608060405234801561001057600080fd5b506040516020806134b1833981018060405281019080805190602001909291905050506000600581905550806000806101000a81548173ffffffffffffffffffffffffffffffffffffffff021916908373ffffffffffffffffffffffffffffffffffffffff160217905550506134268061008b6000396000f300608060405260043610610099576000357c0100000000000000000000000000000000000000000000000000000000900463ffffffff168063170dd1601461009e578063401c8a53146101f7578063835605251461020e5780639a3a7c69146102fa578063b9db15b414610327578063c897d5a61461056e578063cc352db714610599578063d96a094a146105c6578063fe25e00a146105e6575b600080fd5b3480156100aa57600080fd5b506101f5600480360381019080803590602001908201803590602001908080601f0160208091040260200160405190810160405280939291908181526020018383808284378201915050505050509192919290803590602001908201803590602001908080601f0160208091040260200160405190810160405280939291908181526020018383808284378201915050505050509192919290803590602001908201803590602001908080601f0160208091040260200160405190810160405280939291908181526020018383808284378201915050505050509192919290803590602001908201803590602001908080601f016020809104026020016040519081016040528093929190818152602001838380828437820191505050505050919291929080359060200190929190803590602001909291908035906020019092919050505061063d565b005b34801561020357600080fd5b5061020c610a7f565b005b34801561021a57600080fd5b5061023960048036038101908080359060200190929190505050610b0e565b604051808773ffffffffffffffffffffffffffffffffffffffff1673ffffffffffffffffffffffffffffffffffffffff1681526020018673ffffffffffffffffffffffffffffffffffffffff1673ffffffffffffffffffffffffffffffffffffffff1681526020018573ffffffffffffffffffffffffffffffffffffffff1673ffffffffffffffffffffffffffffffffffffffff16815260200184151515158152602001838152602001828152602001965050505050505060405180910390f35b34801561030657600080fd5b5061032560048036038101908080359060200190929190505050610c30565b005b34801561033357600080fd5b50610352600480360381019080803590602001909291905050506112cb565b604051808a81526020018060200180602001806020018060200189815260200188815260200187600181111561038457fe5b60ff1681526020018673ffffffffffffffffffffffffffffffffffffffff1673ffffffffffffffffffffffffffffffffffffffff16815260200185810385528d818151815260200191508051906020019080838360005b838110156103f65780820151818401526020810190506103db565b50505050905090810190601f1680156104235780820380516001836020036101000a031916815260200191505b5085810384528c818151815260200191508051906020019080838360005b8381101561045c578082015181840152602081019050610441565b50505050905090810190601f1680156104895780820380516001836020036101000a031916815260200191505b5085810383528b818151815260200191508051906020019080838360005b838110156104c25780820151818401526020810190506104a7565b50505050905090810190601f1680156104ef5780820380516001836020036101000a031916815260200191505b5085810382528a818151815260200191508051906020019080838360005b8381101561052857808201518184015260208101905061050d565b50505050905090810190601f1680156105555780820380516001836020036101000a031916815260200191505b509d505050505050505050505050505060405180910390f35b34801561057a57600080fd5b506105836116f6565b6040518082815260200191505060405180910390f35b3480156105a557600080fd5b506105c4600480360381019080803590602001909291905050506116fc565b005b6105e460048036038101908080359060200190929190505050611dd1565b005b3480156105f257600080fd5b506105fb612595565b604051808273ffffffffffffffffffffffffffffffffffffffff1673ffffffffffffffffffffffffffffffffffffffff16815260200191505060405180910390f35b6106456125ba565b60016005540160058190555061012060405190810160405280600554815260200189815260200188815260200187815260200186815260200185815260200184815260200183600181111561069657fe5b60018111156106a157fe5b8152602001600073ffffffffffffffffffffffffffffffffffffffff16815250905080600260003373ffffffffffffffffffffffffffffffffffffffff1673ffffffffffffffffffffffffffffffffffffffff1681526020019081526020016000206000600554815260200190815260200160002060008201518160000155602082015181600101908051906020019061073c929190612628565b506040820151816002019080519060200190610759929190612628565b506060820151816003019080519060200190610776929190612628565b506080820151816004019080519060200190610793929190612628565b5060a0820151816005015560c0820151816006015560e08201518160070160006101000a81548160ff021916908360018111156107cc57fe5b02179055506101008201518160070160016101000a81548173ffffffffffffffffffffffffffffffffffffffff021916908373ffffffffffffffffffffffffffffffffffffffff1602179055509050503360036000600554815260200190815260200160002060006101000a81548173ffffffffffffffffffffffffffffffffffffffff021916908373ffffffffffffffffffffffffffffffffffffffff1602179055507fd952ab5034808c75d7ae7c37cf56ef07be795c8c8d212578af61c43f81b5b2b860055489898989898989604051808981526020018060200180602001806020018060200188815260200187815260200186815260200185810385528c818151815260200191508051906020019080838360005b838110156108ff5780820151818401526020810190506108e4565b50505050905090810190601f16801561092c5780820380516001836020036101000a031916815260200191505b5085810384528b818151815260200191508051906020019080838360005b8381101561096557808201518184015260208101905061094a565b50505050905090810190601f1680156109925780820380516001836020036101000a031916815260200191505b5085810383528a818151815260200191508051906020019080838360005b838110156109cb5780820151818401526020810190506109b0565b50505050905090810190601f1680156109f85780820380516001836020036101000a031916815260200191505b50858103825289818151815260200191508051906020019080838360005b83811015610a31578082015181840152602081019050610a16565b50505050905090810190601f168015610a5e5780820380516001836020036101000a031916815260200191505b509c5050505050505050505050505060405180910390a15050505050505050565b60018060003373ffffffffffffffffffffffffffffffffffffffff1673ffffffffffffffffffffffffffffffffffffffff16815260200190815260200160002054141515610b0c5760018060003373ffffffffffffffffffffffffffffffffffffffff1673ffffffffffffffffffffffffffffffffffffffff168152602001908152602001600020819055505b565b6000806000806000806004600088815260200190815260200160002060009054906101000a900473ffffffffffffffffffffffffffffffffffffffff1673ffffffffffffffffffffffffffffffffffffffff1663f3d259046040518163ffffffff167c010000000000000000000000000000000000000000000000000000000002815260040160c060405180830381600087803b158015610bae57600080fd5b505af1158015610bc2573d6000803e3d6000fd5b505050506040513d60c0811015610bd857600080fd5b8101908080519060200190929190805190602001909291908051906020019092919080519060200190929190805190602001909291908051906020019092919050505095509550955095509550955091939550919395565b610c386125ba565b60018060003373ffffffffffffffffffffffffffffffffffffffff1673ffffffffffffffffffffffffffffffffffffffff168152602001908152602001600020541480610cd157506000809054906101000a900473ffffffffffffffffffffffffffffffffffffffff1673ffffffffffffffffffffffffffffffffffffffff163373ffffffffffffffffffffffffffffffffffffffff16145b156112c7576004600083815260200190815260200160002060009054906101000a900473ffffffffffffffffffffffffffffffffffffffff1673ffffffffffffffffffffffffffffffffffffffff166358aad10b336040518263ffffffff167c0100000000000000000000000000000000000000000000000000000000028152600401808273ffffffffffffffffffffffffffffffffffffffff1673ffffffffffffffffffffffffffffffffffffffff168152602001915050600060405180830381600087803b158015610da457600080fd5b505af1158015610db8573d6000803e3d6000fd5b50505050600115156004600084815260200190815260200160002060009054906101000a900473ffffffffffffffffffffffffffffffffffffffff1673ffffffffffffffffffffffffffffffffffffffff1663d1a52e306040518163ffffffff167c0100000000000000000000000000000000000000000000000000000000028152600401602060405180830381600087803b158015610e5757600080fd5b505af1158015610e6b573d6000803e3d6000fd5b505050506040513d6020811015610e8157600080fd5b8101908080519060200190929190505050151514156112c657600260006003600085815260200190815260200160002060009054906101000a900473ffffffffffffffffffffffffffffffffffffffff1673ffffffffffffffffffffffffffffffffffffffff1673ffffffffffffffffffffffffffffffffffffffff1681526020019081526020016000206000838152602001908152602001600020610120604051908101604052908160008201548152602001600182018054600181600116156101000203166002900480601f016020809104026020016040519081016040528092919081815260200182805460018160011615610100020316600290048015610fcd5780601f10610fa257610100808354040283529160200191610fcd565b820191906000526020600020905b815481529060010190602001808311610fb057829003601f168201915b50505050508152602001600282018054600181600116156101000203166002900480601f01602080910402602001604051908101604052809291908181526020018280546001816001161561010002031660029004801561106f5780601f106110445761010080835404028352916020019161106f565b820191906000526020600020905b81548152906001019060200180831161105257829003601f168201915b50505050508152602001600382018054600181600116156101000203166002900480601f0160208091040260200160405190810160405280929190818152602001828054600181600116156101000203166002900480156111115780601f106110e657610100808354040283529160200191611111565b820191906000526020600020905b8154815290600101906020018083116110f457829003601f168201915b50505050508152602001600482018054600181600116156101000203166002900480601f0160208091040260200160405190810160405280929190818152602001828054600181600116156101000203166002900480156111b35780601f10611188576101008083540402835291602001916111b3565b820191906000526020600020905b81548152906001019060200180831161119657829003601f168201915b5050505050815260200160058201548152602001600682015481526020016007820160009054906101000a900460ff1660018111156111ee57fe5b60018111156111f957fe5b81526020016007820160019054906101000a900473ffffffffffffffffffffffffffffffffffffffff1673ffffffffffffffffffffffffffffffffffffffff1673ffffffffffffffffffffffffffffffffffffffff168152505090507f8b353b1d2ca6ba6d50b3ef0d7fc08cfd9cfbd7663f4e217ebb480e754153c57e82826101000151604051808381526020018273ffffffffffffffffffffffffffffffffffffffff1673ffffffffffffffffffffffffffffffffffffffff1681526020019250505060405180910390a15b5b5050565b60006060806060806000806000806112e16125ba565b60026000600360008e815260200190815260200160002060009054906101000a900473ffffffffffffffffffffffffffffffffffffffff1673ffffffffffffffffffffffffffffffffffffffff1673ffffffffffffffffffffffffffffffffffffffff16815260200190815260200160002060008c8152602001908152602001600020610120604051908101604052908160008201548152602001600182018054600181600116156101000203166002900480601f0160208091040260200160405190810160405280929190818152602001828054600181600116156101000203166002900480156114145780601f106113e957610100808354040283529160200191611414565b820191906000526020600020905b8154815290600101906020018083116113f757829003601f168201915b50505050508152602001600282018054600181600116156101000203166002900480601f0160208091040260200160405190810160405280929190818152602001828054600181600116156101000203166002900480156114b65780601f1061148b576101008083540402835291602001916114b6565b820191906000526020600020905b81548152906001019060200180831161149957829003601f168201915b50505050508152602001600382018054600181600116156101000203166002900480601f0160208091040260200160405190810160405280929190818152602001828054600181600116156101000203166002900480156115585780601f1061152d57610100808354040283529160200191611558565b820191906000526020600020905b81548152906001019060200180831161153b57829003601f168201915b50505050508152602001600482018054600181600116156101000203166002900480601f0160208091040260200160405190810160405280929190818152602001828054600181600116156101000203166002900480156115fa5780601f106115cf576101008083540402835291602001916115fa565b820191906000526020600020905b8154815290600101906020018083116115dd57829003601f168201915b5050505050815260200160058201548152602001600682015481526020016007820160009054906101000a900460ff16600181111561163557fe5b600181111561164057fe5b81526020016007820160019054906101000a900473ffffffffffffffffffffffffffffffffffffffff1673ffffffffffffffffffffffffffffffffffffffff1673ffffffffffffffffffffffffffffffffffffffff16815250509050806000015181602001518260400151836060015184608001518560a001518660c001518760e00151886101000151879750869650859550849450995099509950995099509950995099509950509193959799909294969850565b60055481565b6117046125ba565b60018060003373ffffffffffffffffffffffffffffffffffffffff1673ffffffffffffffffffffffffffffffffffffffff16815260200190815260200160002054148061179d57506000809054906101000a900473ffffffffffffffffffffffffffffffffffffffff1673ffffffffffffffffffffffffffffffffffffffff163373ffffffffffffffffffffffffffffffffffffffff16145b15611dcd576004600083815260200190815260200160002060009054906101000a900473ffffffffffffffffffffffffffffffffffffffff1673ffffffffffffffffffffffffffffffffffffffff1663a97d1b10336040518263ffffffff167c0100000000000000000000000000000000000000000000000000000000028152600401808273ffffffffffffffffffffffffffffffffffffffff1673ffffffffffffffffffffffffffffffffffffffff168152602001915050600060405180830381600087803b15801561187057600080fd5b505af1158015611884573d6000803e3d6000fd5b50505050600115156004600084815260200190815260200160002060009054906101000a900473ffffffffffffffffffffffffffffffffffffffff1673ffffffffffffffffffffffffffffffffffffffff1663d1a52e306040518163ffffffff167c0100000000000000000000000000000000000000000000000000000000028152600401602060405180830381600087803b15801561192357600080fd5b505af1158015611937573d6000803e3d6000fd5b505050506040513d602081101561194d57600080fd5b810190808051906020019092919050505015151415611dcc57600260006003600085815260200190815260200160002060009054906101000a900473ffffffffffffffffffffffffffffffffffffffff1673ffffffffffffffffffffffffffffffffffffffff1673ffffffffffffffffffffffffffffffffffffffff1681526020019081526020016000206000838152602001908152602001600020610120604051908101604052908160008201548152602001600182018054600181600116156101000203166002900480601f016020809104026020016040519081016040528092919081815260200182805460018160011615610100020316600290048015611a995780601f10611a6e57610100808354040283529160200191611a99565b820191906000526020600020905b815481529060010190602001808311611a7c57829003601f168201915b50505050508152602001600282018054600181600116156101000203166002900480601f016020809104026020016040519081016040528092919081815260200182805460018160011615610100020316600290048015611b3b5780601f10611b1057610100808354040283529160200191611b3b565b820191906000526020600020905b815481529060010190602001808311611b1e57829003601f168201915b50505050508152602001600382018054600181600116156101000203166002900480601f016020809104026020016040519081016040528092919081815260200182805460018160011615610100020316600290048015611bdd5780601f10611bb257610100808354040283529160200191611bdd565b820191906000526020600020905b815481529060010190602001808311611bc057829003601f168201915b50505050508152602001600482018054600181600116156101000203166002900480601f016020809104026020016040519081016040528092919081815260200182805460018160011615610100020316600290048015611c7f5780601f10611c5457610100808354040283529160200191611c7f565b820191906000526020600020905b815481529060010190602001808311611c6257829003601f168201915b5050505050815260200160058201548152602001600682015481526020016007820160009054906101000a900460ff166001811115611cba57fe5b6001811115611cc557fe5b81526020016007820160019054906101000a900473ffffffffffffffffffffffffffffffffffffffff1673ffffffffffffffffffffffffffffffffffffffff1673ffffffffffffffffffffffffffffffffffffffff16815250509050600081610100019073ffffffffffffffffffffffffffffffffffffffff16908173ffffffffffffffffffffffffffffffffffffffff16815250507f8b353b1d2ca6ba6d50b3ef0d7fc08cfd9cfbd7663f4e217ebb480e754153c57e82826101000151604051808381526020018273ffffffffffffffffffffffffffffffffffffffff1673ffffffffffffffffffffffffffffffffffffffff1681526020019250505060405180910390a15b5b5050565b611dd96125ba565b6000600260006003600086815260200190815260200160002060009054906101000a900473ffffffffffffffffffffffffffffffffffffffff1673ffffffffffffffffffffffffffffffffffffffff1673ffffffffffffffffffffffffffffffffffffffff1681526020019081526020016000206000848152602001908152602001600020610120604051908101604052908160008201548152602001600182018054600181600116156101000203166002900480601f016020809104026020016040519081016040528092919081815260200182805460018160011615610100020316600290048015611f0e5780601f10611ee357610100808354040283529160200191611f0e565b820191906000526020600020905b815481529060010190602001808311611ef157829003601f168201915b50505050508152602001600282018054600181600116156101000203166002900480601f016020809104026020016040519081016040528092919081815260200182805460018160011615610100020316600290048015611fb05780601f10611f8557610100808354040283529160200191611fb0565b820191906000526020600020905b815481529060010190602001808311611f9357829003601f168201915b50505050508152602001600382018054600181600116156101000203166002900480601f0160208091040260200160405190810160405280929190818152602001828054600181600116156101000203166002900480156120525780601f1061202757610100808354040283529160200191612052565b820191906000526020600020905b81548152906001019060200180831161203557829003601f168201915b50505050508152602001600482018054600181600116156101000203166002900480601f0160208091040260200160405190810160405280929190818152602001828054600181600116156101000203166002900480156120f45780601f106120c9576101008083540402835291602001916120f4565b820191906000526020600020905b8154815290600101906020018083116120d757829003601f168201915b5050505050815260200160058201548152602001600682015481526020016007820160009054906101000a900460ff16600181111561212f57fe5b600181111561213a57fe5b81526020016007820160019054906101000a900473ffffffffffffffffffffffffffffffffffffffff1673ffffffffffffffffffffffffffffffffffffffff1673ffffffffffffffffffffffffffffffffffffffff16815250509150600073ffffffffffffffffffffffffffffffffffffffff1682610100015173ffffffffffffffffffffffffffffffffffffffff161415156121d657600080fd5b6003600084815260200190815260200160002060009054906101000a900473ffffffffffffffffffffffffffffffffffffffff1673ffffffffffffffffffffffffffffffffffffffff163373ffffffffffffffffffffffffffffffffffffffff161415151561224457600080fd5b8160c00151341015151561225757600080fd5b3382610100019073ffffffffffffffffffffffffffffffffffffffff16908173ffffffffffffffffffffffffffffffffffffffff168152505081600260006003600087815260200190815260200160002060009054906101000a900473ffffffffffffffffffffffffffffffffffffffff1673ffffffffffffffffffffffffffffffffffffffff1673ffffffffffffffffffffffffffffffffffffffff168152602001908152602001600020600085815260200190815260200160002060008201518160000155602082015181600101908051906020019061233a929190612628565b506040820151816002019080519060200190612357929190612628565b506060820151816003019080519060200190612374929190612628565b506080820151816004019080519060200190612391929190612628565b5060a0820151816005015560c0820151816006015560e08201518160070160006101000a81548160ff021916908360018111156123ca57fe5b02179055506101008201518160070160016101000a81548173ffffffffffffffffffffffffffffffffffffffff021916908373ffffffffffffffffffffffffffffffffffffffff1602179055509050503483336003600087815260200190815260200160002060009054906101000a900473ffffffffffffffffffffffffffffffffffffffff166000809054906101000a900473ffffffffffffffffffffffffffffffffffffffff1661247b6126a8565b808581526020018473ffffffffffffffffffffffffffffffffffffffff1673ffffffffffffffffffffffffffffffffffffffff1681526020018373ffffffffffffffffffffffffffffffffffffffff1673ffffffffffffffffffffffffffffffffffffffff1681526020018273ffffffffffffffffffffffffffffffffffffffff1673ffffffffffffffffffffffffffffffffffffffff1681526020019450505050506040518091039082f080158015612539573d6000803e3d6000fd5b5090509050806004600085815260200190815260200160002060006101000a81548173ffffffffffffffffffffffffffffffffffffffff021916908373ffffffffffffffffffffffffffffffffffffffff160217905550505050565b6000809054906101000a900473ffffffffffffffffffffffffffffffffffffffff1681565b61012060405190810160405280600081526020016060815260200160608152602001606081526020016060815260200160008152602001600081526020016000600181111561260557fe5b8152602001600073ffffffffffffffffffffffffffffffffffffffff1681525090565b828054600181600116156101000203166002900490600052602060002090601f016020900481019282601f1061266957805160ff1916838001178555612697565b82800160010185558215612697579182015b8281111561269657825182559160200191906001019061267b565b5b5090506126a491906126b8565b5090565b604051610d1d806126de83390190565b6126da91905b808211156126d65760008160009055506001016126be565b5090565b9056006080604052604051608080610d1d8339810180604052810190808051906020019092919080519060200190929190805190602001909291908051906020019092919050505082600160006101000a81548173ffffffffffffffffffffffffffffffffffffffff021916908373ffffffffffffffffffffffffffffffffffffffff16021790555081600260006101000a81548173ffffffffffffffffffffffffffffffffffffffff021916908373ffffffffffffffffffffffffffffffffffffffff16021790555080600360006101000a81548173ffffffffffffffffffffffffffffffffffffffff021916908373ffffffffffffffffffffffffffffffffffffffff1602179055506000600a60006101000a81548160ff02191690831515021790555034600581905550336000806101000a81548173ffffffffffffffffffffffffffffffffffffffff021916908373ffffffffffffffffffffffffffffffffffffffff1602179055508360048190555050505050610b9a806101836000396000f3006080604052600436106100ba576000357c0100000000000000000000000000000000000000000000000000000000900463ffffffff16806308551a53146100bf5780630bda4dbf1461011657806358aad10b146101415780637150d8ae146101845780638da5cb5b146101db578063a97d1b1014610232578063aa8c217c14610275578063b8d08db2146102a0578063c5ce3911146102cb578063d1a52e30146102f6578063f3d2590414610325578063fe25e00a146103fb575b600080fd5b3480156100cb57600080fd5b506100d4610452565b604051808273ffffffffffffffffffffffffffffffffffffffff1673ffffffffffffffffffffffffffffffffffffffff16815260200191505060405180910390f35b34801561012257600080fd5b5061012b610478565b6040518082815260200191505060405180910390f35b34801561014d57600080fd5b50610182600480360381019080803573ffffffffffffffffffffffffffffffffffffffff16906020019092919050505061047e565b005b34801561019057600080fd5b5061019961075d565b604051808273ffffffffffffffffffffffffffffffffffffffff1673ffffffffffffffffffffffffffffffffffffffff16815260200191505060405180910390f35b3480156101e757600080fd5b506101f0610783565b604051808273ffffffffffffffffffffffffffffffffffffffff1673ffffffffffffffffffffffffffffffffffffffff16815260200191505060405180910390f35b34801561023e57600080fd5b50610273600480360381019080803573ffffffffffffffffffffffffffffffffffffffff1690602001909291905050506107a8565b005b34801561028157600080fd5b5061028a610a87565b6040518082815260200191505060405180910390f35b3480156102ac57600080fd5b506102b5610a8d565b6040518082815260200191505060405180910390f35b3480156102d757600080fd5b506102e0610a93565b6040518082815260200191505060405180910390f35b34801561030257600080fd5b5061030b610a99565b604051808215151515815260200191505060405180910390f35b34801561033157600080fd5b5061033a610aac565b604051808773ffffffffffffffffffffffffffffffffffffffff1673ffffffffffffffffffffffffffffffffffffffff1681526020018673ffffffffffffffffffffffffffffffffffffffff1673ffffffffffffffffffffffffffffffffffffffff1681526020018573ffffffffffffffffffffffffffffffffffffffff1673ffffffffffffffffffffffffffffffffffffffff16815260200184151515158152602001838152602001828152602001965050505050505060405180910390f35b34801561040757600080fd5b50610410610b48565b604051808273ffffffffffffffffffffffffffffffffffffffff1673ffffffffffffffffffffffffffffffffffffffff16815260200191505060405180910390f35b600260009054906101000a900473ffffffffffffffffffffffffffffffffffffffff1681565b60095481565b60001515600a60009054906101000a900460ff1615151415156104a057600080fd5b6000809054906101000a900473ffffffffffffffffffffffffffffffffffffffff1673ffffffffffffffffffffffffffffffffffffffff163373ffffffffffffffffffffffffffffffffffffffff161415156104fb57600080fd5b600160009054906101000a900473ffffffffffffffffffffffffffffffffffffffff1673ffffffffffffffffffffffffffffffffffffffff168173ffffffffffffffffffffffffffffffffffffffff1614806105a45750600260009054906101000a900473ffffffffffffffffffffffffffffffffffffffff1673ffffffffffffffffffffffffffffffffffffffff168173ffffffffffffffffffffffffffffffffffffffff16145b806105fc5750600360009054906101000a900473ffffffffffffffffffffffffffffffffffffffff1673ffffffffffffffffffffffffffffffffffffffff168173ffffffffffffffffffffffffffffffffffffffff16145b8015610659575060011515600660008373ffffffffffffffffffffffffffffffffffffffff1673ffffffffffffffffffffffffffffffffffffffff16815260200190815260200160002060009054906101000a900460ff16151514155b156106c8576001600660008373ffffffffffffffffffffffffffffffffffffffff1673ffffffffffffffffffffffffffffffffffffffff16815260200190815260200160002060006101000a81548160ff02191690831515021790555060016008600082825401925050819055505b6002600854141561075a57600260009054906101000a900473ffffffffffffffffffffffffffffffffffffffff1673ffffffffffffffffffffffffffffffffffffffff166108fc6005549081150290604051600060405180830381858888f1935050505015801561073d573d6000803e3d6000fd5b506001600a60006101000a81548160ff0219169083151502179055505b50565b600160009054906101000a900473ffffffffffffffffffffffffffffffffffffffff1681565b6000809054906101000a900473ffffffffffffffffffffffffffffffffffffffff1681565b60001515600a60009054906101000a900460ff1615151415156107ca57600080fd5b6000809054906101000a900473ffffffffffffffffffffffffffffffffffffffff1673ffffffffffffffffffffffffffffffffffffffff163373ffffffffffffffffffffffffffffffffffffffff1614151561082557600080fd5b600160009054906101000a900473ffffffffffffffffffffffffffffffffffffffff1673ffffffffffffffffffffffffffffffffffffffff168173ffffffffffffffffffffffffffffffffffffffff1614806108ce5750600260009054906101000a900473ffffffffffffffffffffffffffffffffffffffff1673ffffffffffffffffffffffffffffffffffffffff168173ffffffffffffffffffffffffffffffffffffffff16145b806109265750600360009054906101000a900473ffffffffffffffffffffffffffffffffffffffff1673ffffffffffffffffffffffffffffffffffffffff168173ffffffffffffffffffffffffffffffffffffffff16145b8015610983575060011515600760008373ffffffffffffffffffffffffffffffffffffffff1673ffffffffffffffffffffffffffffffffffffffff16815260200190815260200160002060009054906101000a900460ff16151514155b156109f2576001600760008373ffffffffffffffffffffffffffffffffffffffff1673ffffffffffffffffffffffffffffffffffffffff16815260200190815260200160002060006101000a81548160ff02191690831515021790555060016009600082825401925050819055505b60026009541415610a8457600160009054906101000a900473ffffffffffffffffffffffffffffffffffffffff1673ffffffffffffffffffffffffffffffffffffffff166108fc6005549081150290604051600060405180830381858888f19350505050158015610a67573d6000803e3d6000fd5b506001600a60006101000a81548160ff0219169083151502179055505b50565b60055481565b60085481565b60045481565b600a60009054906101000a900460ff1681565b600080600080600080600160009054906101000a900473ffffffffffffffffffffffffffffffffffffffff16600260009054906101000a900473ffffffffffffffffffffffffffffffffffffffff16600360009054906101000a900473ffffffffffffffffffffffffffffffffffffffff16600a60009054906101000a900460ff16600854600954955095509550955095509550909192939495565b600360009054906101000a900473ffffffffffffffffffffffffffffffffffffffff16815600a165627a7a7230582011f713a4abc17a38aa49a52674e8e66c870b9e528d62d8c27b8ab6343f35e09c0029a165627a7a7230582036cd0da32b07717a120e161356dd904ad500daf10d461240ba05fd0519474def0029",
  "source": "pragma solidity ^0.4.24;\n\nimport \"contracts/Escrow.sol\";\nimport \"contracts/ClaimHolder.sol\";\n\ncontract EcommerceStore \n{    \n    address public arbiter;\n    mapping (address => uint) claims;\n    mapping (address => mapping(uint => Product)) stores;\n    mapping (uint => address) productIdInStore;\n    mapping (uint => address) productEscrow;\n    \n    //event ClaimValid(ClaimHolder _identity, uint256 claimType);\n    //event ClaimInvalid(ClaimHolder _identity, uint256 claimType);\n    event ReleaseFunds(uint _productId, address _buyer);\n    event NewProduct (\n        uint _productId, \n        string _name, \n        string _category, \n        string _imageLink, \n        string _descLink, \n        uint _startTime, \n        uint _price, \n        uint _productCondition\n    );\n    enum ProductCondition {New, Used}\n    struct Product {\n        uint id;\n        string name;\n        string category;\n        string imageLink;\n        string descLink;\n        uint startTime;\n        uint price;\n        ProductCondition condition;\n        address buyer;\n    }\n    uint public productIndex;\n    \n    constructor(address _arbiter) public {\n        productIndex = 0;\n        arbiter = _arbiter;\n    }\n\n    function bless() public {\n        if (claims[msg.sender] != 1) {\n            claims[msg.sender] = 1;\n        }\n    }\n\n    function addProductToStore(\n        string _name, string _category, \n        string _imageLink, string _descLink, \n        uint _startTime, uint _price, \n        uint _productCondition) public {\n        productIndex = productIndex + 1;\n        Product memory product = Product(\n            productIndex, \n            _name, _category, \n            _imageLink, _descLink, \n            _startTime, _price, \n            ProductCondition(_productCondition), 0);\n        stores[msg.sender][productIndex] = product;\n        productIdInStore[productIndex] = msg.sender;\n        emit NewProduct(\n            productIndex, _name, \n            _category, _imageLink,\n            _descLink, _startTime, \n            _price, _productCondition);\n    }\n    \n    function getProduct(uint _productId) \n    public view returns (uint, string, string, string, string, uint, uint, ProductCondition, address) \n    {     \n        Product memory product = stores[productIdInStore[_productId]][_productId];\n        return (product.id, product.name, product.category, product.imageLink,\n            product.descLink, product.startTime, product.price,\n            product.condition, product.buyer);\n    }\n    \n    function buy(uint _productId) payable public {\n        Product memory product = stores[productIdInStore[_productId]][_productId];\n        require(product.buyer == address(0));\n        require(msg.sender != productIdInStore[_productId]);\n        require(msg.value >= product.price);\n        //request claim from arbiter\n        //ClaimHolder(claims[msg.sender]) beneficiaryIdentity = ClaimHolder(_beneficiary);\n        //require(verifier.checkClaim(beneficiaryIdentity, 7));\n        product.buyer = msg.sender;\n        stores[productIdInStore[_productId]][_productId] = product;\n        Escrow escrow = (new Escrow).value(msg.value)(_productId, msg.sender, productIdInStore[_productId], arbiter);\n        productEscrow[_productId] = escrow;\n    }\n\n    function escrowInfo(uint _productId) view public returns (address, address, address, bool, uint, uint) {\n        return Escrow(productEscrow[_productId]).escrowInfo();\n    }\n\n    function releaseAmountToSeller(uint _productId) public {\n        if (claims[msg.sender] == 1 || msg.sender == arbiter) {\n            Escrow(productEscrow[_productId]).releaseAmountToSeller(msg.sender);\n            if (Escrow(productEscrow[_productId]).fundsDisbursed() == true) {\n                Product memory product = stores[productIdInStore[_productId]][_productId];\n                emit ReleaseFunds(_productId, product.buyer);\n            }\n        }\n    }\n    \n    function refundAmountToBuyer(uint _productId) public {\n        if (claims[msg.sender] == 1 || msg.sender == arbiter) {\n            Escrow(productEscrow[_productId]).refundAmountToBuyer(msg.sender);\n            if (Escrow(productEscrow[_productId]).fundsDisbursed() == true) {\n                Product memory product = stores[productIdInStore[_productId]][_productId];\n                product.buyer = address(0);\n                emit ReleaseFunds(_productId, product.buyer);\n            }\n        }\n    }\n\n    /**\n      * @dev Recover signer address from a message by using their signature\n      * @param sig bytes signature, the signature is generated using web3.eth.sign()\n      * @param dataHash bytes32 message, the hash is the signed message. What is recovered is the signer address.\n    */\n    // function getRecoveredAddress(bytes sig, bytes32 dataHash)\n    // internal pure returns (address addr) {\n    //     bytes32 r;\n    //     bytes32 s;\n    //     uint8 v;\n\n    //     if (sig.length != 65) {\n    //         return (address(0));\n    //     }\n    //     // Divide the signature in r, s and v variables for ecrecover\n    //     // the only way to get them currently is to use assembly.\n    //     // solium-disable-next-line security/no-inline-assembly\n    //     assembly {\n    //       r := mload(add(sig, 32))\n    //       s := mload(add(sig, 64))\n    //       v := byte(0, mload(add(sig, 96)))\n    //     }\n    //     if (v < 27) {\n    //         v += 27;\n    //     }\n    //     // If the version is correct return the signer address\n    //     if (v != 27 && v != 28) {\n    //         return (address(0));\n    //     } else {\n    //         // solium-disable-next-line arg-overflow\n    //         return ecrecover(dataHash, v, r, s);\n    //     }\n    // }\n    // function checkClaim(ClaimHolder _identity, uint256 claimType)\n    // public returns (bool claimValid) {\n    //     if (claimIsValid(_identity, claimType)) {\n    //         emit ClaimValid(_identity, claimType);\n    //         return true;\n    //     } else {\n    //         emit ClaimInvalid(_identity, claimType);\n    //         return false;\n    //     }\n    // }\n    // function claimIsValid(ClaimHolder _identity, uint256 claimType)\n    // public view returns (bool claimValid) {\n    //     uint256 foundClaimType;\n    //     uint256 scheme;\n    //     address issuer;\n    //     bytes memory sig;\n    //     bytes memory data;\n    //     bytes32 claimId = keccak256(trustedClaimHolder, claimType);\n    //     // Fetch claim from user\n    //     ( foundClaimType, scheme, issuer, sig, data, ) = _identity.getClaim(claimId);\n\n    //     bytes32 dataHash = keccak256(_identity, claimType, data);\n    //     bytes32 prefixedHash = keccak256(abi.encodePacked(\"\\x19Ethereum Signed Message:\\n32\", dataHash));\n    //     // Recover address of data signer\n    //     address recovered = getRecoveredAddress(sig, prefixedHash);\n    //     // Take hash of recovered address\n    //     bytes32 hashedAddr = keccak256(recovered);\n    //     // Does the trusted identifier have they key which signed the user's claim?\n    //     return trustedClaimHolder.keyHasPurpose(hashedAddr, 1);\n    // }\n}\n",
  "sourcePath": "/Users/tobacco/Downloads/Archive/contracts/EcommerceStore.sol",
  "compiler": {
    "name": "solc",
    "version": "0.4.24+commit.e67f0147.Emscripten.clang"
  },
  "schemaVersion": "2.0.1",
  "updatedAt": "2018-07-17T16:44:10.642Z"
}