{
  "contractName": "KeyHolder",
  "abi": [
    {
      "inputs": [],
      "payable": false,
      "stateMutability": "nonpayable",
      "type": "constructor"
    },
    {
      "anonymous": false,
      "inputs": [
        {
          "indexed": true,
          "name": "executionId",
          "type": "uint256"
        },
        {
          "indexed": true,
          "name": "to",
          "type": "address"
        },
        {
          "indexed": true,
          "name": "value",
          "type": "uint256"
        },
        {
          "indexed": false,
          "name": "data",
          "type": "bytes"
        }
      ],
      "name": "ExecutionFailed",
      "type": "event"
    },
    {
      "anonymous": false,
      "inputs": [
        {
          "indexed": true,
          "name": "key",
          "type": "bytes32"
        },
        {
          "indexed": true,
          "name": "purpose",
          "type": "uint256"
        },
        {
          "indexed": true,
          "name": "keyType",
          "type": "uint256"
        }
      ],
      "name": "KeyAdded",
      "type": "event"
    },
    {
      "anonymous": false,
      "inputs": [
        {
          "indexed": true,
          "name": "key",
          "type": "bytes32"
        },
        {
          "indexed": true,
          "name": "purpose",
          "type": "uint256"
        },
        {
          "indexed": true,
          "name": "keyType",
          "type": "uint256"
        }
      ],
      "name": "KeyRemoved",
      "type": "event"
    },
    {
      "anonymous": false,
      "inputs": [
        {
          "indexed": true,
          "name": "executionId",
          "type": "uint256"
        },
        {
          "indexed": true,
          "name": "to",
          "type": "address"
        },
        {
          "indexed": true,
          "name": "value",
          "type": "uint256"
        },
        {
          "indexed": false,
          "name": "data",
          "type": "bytes"
        }
      ],
      "name": "ExecutionRequested",
      "type": "event"
    },
    {
      "anonymous": false,
      "inputs": [
        {
          "indexed": true,
          "name": "executionId",
          "type": "uint256"
        },
        {
          "indexed": true,
          "name": "to",
          "type": "address"
        },
        {
          "indexed": true,
          "name": "value",
          "type": "uint256"
        },
        {
          "indexed": false,
          "name": "data",
          "type": "bytes"
        }
      ],
      "name": "Executed",
      "type": "event"
    },
    {
      "anonymous": false,
      "inputs": [
        {
          "indexed": true,
          "name": "executionId",
          "type": "uint256"
        },
        {
          "indexed": false,
          "name": "approved",
          "type": "bool"
        }
      ],
      "name": "Approved",
      "type": "event"
    },
    {
      "constant": true,
      "inputs": [
        {
          "name": "_key",
          "type": "bytes32"
        }
      ],
      "name": "getKey",
      "outputs": [
        {
          "name": "purpose",
          "type": "uint256"
        },
        {
          "name": "keyType",
          "type": "uint256"
        },
        {
          "name": "key",
          "type": "bytes32"
        }
      ],
      "payable": false,
      "stateMutability": "view",
      "type": "function"
    },
    {
      "constant": true,
      "inputs": [
        {
          "name": "_key",
          "type": "bytes32"
        }
      ],
      "name": "getKeyPurpose",
      "outputs": [
        {
          "name": "purpose",
          "type": "uint256"
        }
      ],
      "payable": false,
      "stateMutability": "view",
      "type": "function"
    },
    {
      "constant": true,
      "inputs": [
        {
          "name": "_purpose",
          "type": "uint256"
        }
      ],
      "name": "getKeysByPurpose",
      "outputs": [
        {
          "name": "_keys",
          "type": "bytes32[]"
        }
      ],
      "payable": false,
      "stateMutability": "view",
      "type": "function"
    },
    {
      "constant": false,
      "inputs": [
        {
          "name": "_key",
          "type": "bytes32"
        },
        {
          "name": "_purpose",
          "type": "uint256"
        },
        {
          "name": "_type",
          "type": "uint256"
        }
      ],
      "name": "addKey",
      "outputs": [
        {
          "name": "success",
          "type": "bool"
        }
      ],
      "payable": false,
      "stateMutability": "nonpayable",
      "type": "function"
    },
    {
      "constant": false,
      "inputs": [
        {
          "name": "_id",
          "type": "uint256"
        },
        {
          "name": "_approve",
          "type": "bool"
        }
      ],
      "name": "approve",
      "outputs": [
        {
          "name": "success",
          "type": "bool"
        }
      ],
      "payable": false,
      "stateMutability": "nonpayable",
      "type": "function"
    },
    {
      "constant": false,
      "inputs": [
        {
          "name": "_to",
          "type": "address"
        },
        {
          "name": "_value",
          "type": "uint256"
        },
        {
          "name": "_data",
          "type": "bytes"
        }
      ],
      "name": "execute",
      "outputs": [
        {
          "name": "executionId",
          "type": "uint256"
        }
      ],
      "payable": true,
      "stateMutability": "payable",
      "type": "function"
    },
    {
      "constant": false,
      "inputs": [
        {
          "name": "_key",
          "type": "bytes32"
        }
      ],
      "name": "removeKey",
      "outputs": [
        {
          "name": "success",
          "type": "bool"
        }
      ],
      "payable": false,
      "stateMutability": "nonpayable",
      "type": "function"
    },
    {
      "constant": true,
      "inputs": [
        {
          "name": "_key",
          "type": "bytes32"
        },
        {
          "name": "_purpose",
          "type": "uint256"
        }
      ],
      "name": "keyHasPurpose",
      "outputs": [
        {
          "name": "result",
          "type": "bool"
        }
      ],
      "payable": false,
      "stateMutability": "view",
      "type": "function"
    }
  ],
  "bytecode": "0x608060405234801561001057600080fd5b50600032604051808273ffffffffffffffffffffffffffffffffffffffff1673ffffffffffffffffffffffffffffffffffffffff166c0100000000000000000000000002815260140191505060405180910390209050806001600083600019166000191681526020019081526020016000206002018160001916905550600180600083600019166000191681526020019081526020016000206000018190555060018060008360001916600019168152602001908152602001600020600101819055506002600060018152602001908152602001600020819080600181540180825580915050906001820390600052602060002001600090919290919091509060001916905550600180600083600019166000191681526020019081526020016000206000015482600019167f480000bb1edad8ca1470381cc334b1917fbd51c6531f3a623ea8e0ec7e38a6e960405160405180910390a45061120a806101786000396000f30060806040526004361061008e576000357c0100000000000000000000000000000000000000000000000000000000900463ffffffff168063032c1a8a1461009357806312aaac70146100d85780631d38124014610133578063747442d314610190578063862642f5146101e15780639010f7261461022a578063b61d27f6146102ac578063d202158d14610346575b600080fd5b34801561009f57600080fd5b506100c26004803603810190808035600019169060200190929190505050610399565b6040518082815260200191505060405180910390f35b3480156100e457600080fd5b5061010760048036038101908080356000191690602001909291905050506103c1565b604051808481526020018381526020018260001916600019168152602001935050505060405180910390f35b34801561013f57600080fd5b5061017660048036038101908080356000191690602001909291908035906020019092919080359060200190929190505050610430565b604051808215151515815260200191505060405180910390f35b34801561019c57600080fd5b506101c7600480360381019080803590602001909291908035151590602001909291905050506106e9565b604051808215151515815260200191505060405180910390f35b3480156101ed57600080fd5b506102106004803603810190808035600019169060200190929190505050610c14565b604051808215151515815260200191505060405180910390f35b34801561023657600080fd5b5061025560048036038101908080359060200190929190505050610d7f565b6040518080602001828103825283818151815260200191508051906020019060200280838360005b8381101561029857808201518184015260208101905061027d565b505050509050019250505060405180910390f35b610330600480360381019080803573ffffffffffffffffffffffffffffffffffffffff16906020019092919080359060200190929190803590602001908201803590602001908080601f0160208091040260200160405190810160405280939291908181526020018383808284378201915050505050509192919290505050610dee565b6040518082815260200191505060405180910390f35b34801561035257600080fd5b5061037f6004803603810190808035600019169060200190929190803590602001909291905050506110d0565b604051808215151515815260200191505060405180910390f35b6000600160008360001916600019168152602001908152602001600020600001549050919050565b60008060006001600085600019166000191681526020019081526020016000206000015460016000866000191660001916815260200190815260200160002060010154600160008760001916600019168152602001908152602001600020600201549250925092509193909250565b600083600019166001600086600019166000191681526020019081526020016000206002015460001916141515156104d0576040517f08c379a00000000000000000000000000000000000000000000000000000000081526004018080602001828103825260128152602001807f4b657920616c726561647920657869737473000000000000000000000000000081525060200191505060405180910390fd5b3073ffffffffffffffffffffffffffffffffffffffff163373ffffffffffffffffffffffffffffffffffffffff161415156105fb5761056033604051808273ffffffffffffffffffffffffffffffffffffffff1673ffffffffffffffffffffffffffffffffffffffff166c01000000000000000000000000028152601401915050604051809103902060016110d0565b15156105fa576040517f08c379a00000000000000000000000000000000000000000000000000000000081526004018080602001828103825260238152602001807f53656e64657220646f6573206e6f742068617665206d616e6167656d656e742081526020017f6b6579000000000000000000000000000000000000000000000000000000000081525060400191505060405180910390fd5b5b8360016000866000191660001916815260200190815260200160002060020181600019169055508260016000866000191660001916815260200190815260200160002060000181905550816001600086600019166000191681526020019081526020016000206001018190555060026000848152602001908152602001600020849080600181540180825580915050906001820390600052602060002001600090919290919091509060001916905550818385600019167f480000bb1edad8ca1470381cc334b1917fbd51c6531f3a623ea8e0ec7e38a6e960405160405180910390a4600190509392505050565b600061074633604051808273ffffffffffffffffffffffffffffffffffffffff1673ffffffffffffffffffffffffffffffffffffffff166c01000000000000000000000000028152601401915050604051809103902060016110d0565b15156107ba576040517f08c379a000000000000000000000000000000000000000000000000000000000815260040180806020018281038252601f8152602001807f53656e64657220646f6573206e6f74206861766520616374696f6e206b65790081525060200191505060405180910390fd5b827fb3932da477fe5d6c8ff2eafef050c0f3a1af18fc07121001482600f36f3715d883604051808215151515815260200191505060405180910390a2600115158215151415610bda5760016003600085815260200190815260200160002060030160006101000a81548160ff0219169083151502179055506003600084815260200190815260200160002060000160009054906101000a900473ffffffffffffffffffffffffffffffffffffffff1673ffffffffffffffffffffffffffffffffffffffff16600360008581526020019081526020016000206001015460036000868152602001908152602001600020600201600060405180838054600181600116156101000203166002900480156109135780601f106108e857610100808354040283529160200191610913565b820191906000526020600020905b8154815290600101906020018083116108f657829003601f168201915b50508260ff1681526020019250505060006040518083038185875af19250505090508015610aa25760016003600085815260200190815260200160002060030160016101000a81548160ff02191690831515021790555060036000848152602001908152602001600020600101546003600085815260200190815260200160002060000160009054906101000a900473ffffffffffffffffffffffffffffffffffffffff1673ffffffffffffffffffffffffffffffffffffffff16847f1f920dbda597d7bf95035464170fa58d0a4b57f13a1c315ace6793b9f63688b8600360008881526020019081526020016000206002016040518080602001828103825283818154600181600116156101000203166002900481526020019150805460018160011615610100020316600290048015610a8f5780601f10610a6457610100808354040283529160200191610a8f565b820191906000526020600020905b815481529060010190602001808311610a7257829003601f168201915b50509250505060405180910390a4610c0e565b60036000848152602001908152602001600020600101546003600085815260200190815260200160002060000160009054906101000a900473ffffffffffffffffffffffffffffffffffffffff1673ffffffffffffffffffffffffffffffffffffffff16847fe10c49d9f7c71da23262367013434763cfdb2332267641728d25cd712c5c6a68600360008881526020019081526020016000206002016040518080602001828103825283818154600181600116156101000203166002900481526020019150805460018160011615610100020316600290048015610bc75780601f10610b9c57610100808354040283529160200191610bc7565b820191906000526020600020905b815481529060010190602001808311610baa57829003601f168201915b50509250505060405180910390a4610c0e565b60006003600085815260200190815260200160002060030160006101000a81548160ff021916908315150217905550600190505b92915050565b600081600019166001600084600019166000191681526020019081526020016000206002015460001916141515610cb3576040517f08c379a000000000000000000000000000000000000000000000000000000000815260040180806020018281038252600b8152602001807f4e6f2073756368206b657900000000000000000000000000000000000000000081525060200191505060405180910390fd5b600160008360001916600019168152602001908152602001600020600101546001600084600019166000191681526020019081526020016000206000015460016000856000191660001916815260200190815260200160002060020154600019167f585a4aef50f8267a92b32412b331b20f7f8b96f2245b253b9cc50dcc621d339760405160405180910390a460016000836000191660001916815260200190815260200160002060008082016000905560018201600090556002820160009055505060019050919050565b606060026000838152602001908152602001600020805480602002602001604051908101604052809291908181526020018280548015610de257602002820191906000526020600020905b81546000191681526020019060010190808311610dca575b50505050509050919050565b6000600360008054815260200190815260200160002060030160019054906101000a900460ff16151515610e8a576040517f08c379a00000000000000000000000000000000000000000000000000000000081526004018080602001828103825260108152602001807f416c72656164792065786563757465640000000000000000000000000000000081525060200191505060405180910390fd5b83600360008054815260200190815260200160002060000160006101000a81548173ffffffffffffffffffffffffffffffffffffffff021916908373ffffffffffffffffffffffffffffffffffffffff160217905550826003600080548152602001908152602001600020600101819055508160036000805481526020019081526020016000206002019080519060200190610f27929190611139565b50828473ffffffffffffffffffffffffffffffffffffffff166000547f8afcfabcb00e47a53a8fc3e9f23ff47ee1926194bb1350dd007c50b412a6cee8856040518080602001828103825283818151815260200191508051906020019080838360005b83811015610fa5578082015181840152602081019050610f8a565b50505050905090810190601f168015610fd25780820380516001836020036101000a031916815260200191505b509250505060405180910390a461103a33604051808273ffffffffffffffffffffffffffffffffffffffff1673ffffffffffffffffffffffffffffffffffffffff166c01000000000000000000000000028152601401915050604051809103902060016110d0565b8061109c575061109b33604051808273ffffffffffffffffffffffffffffffffffffffff1673ffffffffffffffffffffffffffffffffffffffff166c01000000000000000000000000028152601401915050604051809103902060026110d0565b5b156110b0576110ae60005460016106e9565b505b600080815480929190600101919050555060016000540390509392505050565b60008060006001026001600086600019166000191681526020019081526020016000206002015460001916141561110a5760009150611132565b8260016000866000191660001916815260200190815260200160002060000154111590508091505b5092915050565b828054600181600116156101000203166002900490600052602060002090601f016020900481019282601f1061117a57805160ff19168380011785556111a8565b828001600101855582156111a8579182015b828111156111a757825182559160200191906001019061118c565b5b5090506111b591906111b9565b5090565b6111db91905b808211156111d75760008160009055506001016111bf565b5090565b905600a165627a7a723058207d6368d3d97a58639cb517ffbad6dd27bc6fdfde8208e45629391ede6a7431660029",
  "source": "pragma solidity ^0.4.24;\n\nimport \"contracts/ERC725.sol\";\n\ncontract KeyHolder is ERC725 \n{\n    uint256 executionNonce;\n\n    struct Execution {\n        address to;\n        uint256 value;\n        bytes data;\n        bool approved;\n        bool executed;\n    }\n\n    mapping (bytes32 => Key) keys;\n    mapping (uint256 => bytes32[]) keysByPurpose;\n    mapping (uint256 => Execution) executions;\n\n    event ExecutionFailed(uint256 indexed executionId, address indexed to, uint256 indexed value, bytes data);\n\n    constructor() public {\n        // solium-disable-next-line security/no-tx-origin\n        bytes32 _key = keccak256(tx.origin);\n        keys[_key].key = _key;\n        keys[_key].purpose = 1;\n        keys[_key].keyType = 1;\n        keysByPurpose[1].push(_key);\n        emit KeyAdded(_key, keys[_key].purpose, 1);\n    }\n\n    function getKey(bytes32 _key)\n        public view returns(uint256 purpose, uint256 keyType, bytes32 key) {\n        return (keys[_key].purpose, keys[_key].keyType, keys[_key].key);\n    }\n\n    function getKeyPurpose(bytes32 _key)\n        public view returns(uint256 purpose) { \n        return (keys[_key].purpose);\n    }\n\n    function getKeysByPurpose(uint256 _purpose)\n        public view returns(bytes32[] _keys) {\n        return keysByPurpose[_purpose];\n    }\n\n    function addKey(bytes32 _key, uint256 _purpose, uint256 _type)\n        public returns (bool success) {\n        require(keys[_key].key != _key, \"Key already exists\"); // Key should not already exist\n        if (msg.sender != address(this)) {\n            require(keyHasPurpose(keccak256(msg.sender), 1), \"Sender does not have management key\"); // Sender has MANAGEMENT_KEY\n        }\n\n        keys[_key].key = _key;\n        keys[_key].purpose = _purpose;\n        keys[_key].keyType = _type;\n\n        keysByPurpose[_purpose].push(_key);\n\n        emit KeyAdded(_key, _purpose, _type);\n\n        return true;\n    }\n\n    function approve(uint256 _id, bool _approve)\n        public returns (bool success) {\n        require(keyHasPurpose(keccak256(msg.sender), 1), \"Sender does not have action key\");\n\n        emit Approved(_id, _approve);\n\n        if (_approve == true) {\n            executions[_id].approved = true;\n            //forward Ether with the transaction to execute. \n            //solium-disable-next-line security/no-call-value\n            success = executions[_id].to.call.value(executions[_id].value)(executions[_id].data, 0);\n            if (success) {\n                executions[_id].executed = true;\n                emit Executed(\n                    _id,\n                    executions[_id].to,\n                    executions[_id].value,\n                    executions[_id].data\n                );\n                return;\n            } else {\n                emit ExecutionFailed(\n                    _id,\n                    executions[_id].to,\n                    executions[_id].value,\n                    executions[_id].data\n                );\n                return;\n            }\n        } else {\n            executions[_id].approved = false;\n        }\n        return true;\n    }\n\n    function execute(address _to, uint256 _value, bytes _data)\n        public payable returns (uint256 executionId) {\n        require(!executions[executionNonce].executed, \"Already executed\");\n        executions[executionNonce].to = _to;\n        executions[executionNonce].value = _value;\n        executions[executionNonce].data = _data;\n\n        emit ExecutionRequested(executionNonce, _to, _value, _data);\n\n        if (keyHasPurpose(keccak256(msg.sender),1) || keyHasPurpose(keccak256(msg.sender),2)) {\n            approve(executionNonce, true);\n        }\n\n        executionNonce++;\n        return executionNonce-1;\n    }\n\n    function removeKey(bytes32 _key) public returns (bool success) {\n        require(keys[_key].key == _key, \"No such key\");\n        emit KeyRemoved(keys[_key].key, keys[_key].purpose, keys[_key].keyType);\n\n        /* uint index;\n        (index,) = keysByPurpose[keys[_key].purpose.indexOf(_key);\n        keysByPurpose[keys[_key].purpose.removeByIndex(index); */\n\n        delete keys[_key];\n\n        return true;\n    }\n\n    function keyHasPurpose(bytes32 _key, uint256 _purpose)\n        public view returns(bool result) {\n        bool isThere;\n        if (keys[_key].key == 0) return false;\n        isThere = keys[_key].purpose <= _purpose;\n        return isThere;\n    }\n}\n",
  "sourcePath": "/Users/tobacco/Downloads/Archive/contracts/KeyHolder.sol",
  "compiler": {
    "name": "solc",
    "version": "0.4.24+commit.e67f0147.Emscripten.clang"
  },
  "schemaVersion": "2.0.1",
  "updatedAt": "2018-07-17T14:38:55.081Z"
}